:1000000004308A00AA2C00000A108A100A11820704
:1000100028340C34013406340C00CF3C75376110A1
:10002000E2307336E136E1350001E9316937A02964
:10003000D420522AA7302031E139693700000C0062
:10004000C837F3336536E434EE34FA1000000C00A0
:10005000DA30F2163110AD163E100001DA30F21629
:100060003210AD163E1000010C00DA30F216311DD0
:10007000A0126400DA30F216321DA01264000C00E7
:10008000DA30F2163110EB30FA306E32E91000013E
:10009000D4326239E935EC32F2100001DA30F2166E
:1000A0003210EB30FA306E32E9100001D43262398E
:1000B000E935EC32F2100001C232F230E232F232B3
:1000C0002100C437733AEC3A6B10CB30FA306E3201
:1000D000E91000000C00CC3A74336537A027F93AD8
:1000E000EE3A0001C330EC34733A6939A73020315D
:1000F000E139693700010C00CC3A74336537A02729
:10010000F93AEE3A0001C330EC34733A6939A7305A
:100110002031E1396937000034308400831300084E
:100120000319A0280130F800F701F70B9528F80B08
:1001300094284A30F700F70B9B289E28800B9228C2
:1001400008003B0EF039F7000F30080577048800EF
:1001500000000814AB28081008000808F700080E73
:100160000F39F80008008316081088100811831250
:1001700088100F3083160805F038880083120815A0
:10018000000008140000AD207808BB000810000033
:1001900008140000AD207808BA0008100F3083164C
:1001A0000805880083123B0EF700F030F70577084A
:1001B0003A04F8007808BA00BA1BB928381C88102D
:1001C000381888140000081100000810390EBA0011
:1001D0000F30BA053A08BB00A12039080F39BA0020
:1001E000BB00A12008000F30831608058800081006
:1001F0008810081183128810081108100F30B400FD
:100200008C200130AC002C08033C031C0F29033068
:10021000BB00A1200530B4008C20AC0A03290230B9
:10022000BB00A1200530B4008C20AC012C08033C9D
:10023000031C23292C080420AD00B8012D08B900A7
:10024000B320AC0A16298A110A12BD2C350B2929B4
:100250002C294030B6002D29B60101303402B607F2
:1002600036088038B700B8013708B900B320080055
:100270003308073A031946290B3A03194B29063A62
:1002800003195329023A031959295E290130B40090
:10029000B50026216329B8010130B900B32002302E
:1002A000B4008C2063290130B4000230B50026214F
:1002B0006329B8011030B900B32063290130B800B8
:1002C0003308B900B32008000B08AC008B13831669
:1002D00003178C170C140000000083120C087F39E0
:1002E0000319AB290313AD0003170D080313AE0068
:1002F00003170F080313AF002D08B30038212E0891
:1003000003178D0003132F0803178F0083168C1714
:100310000C140000000083120C0D0E0D7F39031920
:10032000AB290313AD0003170D080313AE00031729
:100330000F080313AF002D08B30038212E08031750
:100340008D0003132F0803178F008D0A03198F0ADE
:100350000313672903170313AC1B8B1708008316BD
:1003600006108312061083168610831286108316D9
:1003700006118312061183168611831286118316C5
:1003800006128312061283168612831286128316B1
:10039000061383120613831686138312861308002E
:1003A0002E080739F7002E0CF800F80CF80C1F3057
:1003B000F805780830078400831331188317F80193
:1003C000F80AF70AE429F80DF70BE329AF08031937
:1003D000EC2978088004EF29F809780880050800DE
:1003E0002D080739F7002D0CF800F80CF80C1F3019
:1003F000F80578082E07840083132F188317000848
:10040000F800F70A042AF80CF70B032A8A110A12DB
:10041000162A2C08AE000130AF00B1018030B000C8
:10042000D0212C08AD00AF01AE01F029781C092ABB
:10043000C830B4008C2008000130AA002A08113C02
:10044000031C3A2A1F3003178D0000308F0003135E
:1004500064212A08B4000130B5002621203003179A
:100460008D0000308F00031364211E30B4008C20F7
:10047000AA0A1E2A8A110A12352D0C3003178D0084
:1004800000308F00031364210130B400B500262131
:100490000D3003178D0000308F00031364210130ED
:1004A000B4000230B5002621153003178D0000304E
:1004B0008F00031364218A110A123D2D8316061042
:1004C000831206148316861083128614831606116F
:1004D000831206158316861183128615831606125B
:1004E0008312061683168612831286168316061347
:1004F0008312061783168613831286178A110A122F
:100500003E2D3408F80133020318892A3308F70016
:10051000952AF7010830B500B30DF70D34087702BE
:100520000318F700F80DB50B8C2A08000108AE007F
:1005300081012E08B3000630B40081220130770714
:10054000F800080020302E1E3030AF002D08F700D4
:10055000AD1FB22AF709F70A7708AD002D30AF00BA
:10056000AE172E142D08B3006430B4008122770832
:10057000AD0030307807B0002D08B3000A30B40069
:10058000812230307707B20030307807B1002F0871
:10059000F700303030020319D12AAE14AE1B2E15ED
:1005A000E52A2F08B0002030AF00303031020319A7
:1005B000DD2A2E14AE1BAE14E52A031D2E14031DD6
:1005C000E52A3008B1002030B0002E19EC2AAE1810
:1005D000EF2A2E18F22AF52A2F08B3003821300806
:1005E000B30038213108B30038213208B300382174
:1005F0000800273003178D0000308F00031364219B
:100600000130B400B5002621283003178D000030DA
:100610008F0003136421AA012A082902031C2A2B34
:1006200021302A078400831380080319282B2130E6
:100630002A07840083130008AC00AD001830AE0018
:10064000A22229082A020318282B2B30B3003821B4
:10065000AA0A0C2B0130B4000230B50026212E303E
:1006600003178D0000308F0003136421AA012A08AC
:100670002902031C552B24302A0784008313800889
:100680000319532B24302A07840083130008AC007D
:10069000AD001830AE00A22229082A020318532BFD
:1006A0002B30B3003821AA0A372B0800AC012C08E4
:1006B000073C031C822B1430B4008C2030302C07F4
:1006C000AD00AE000130AF00B101B001D0212D0866
:1006D000AE00AF01B1018030B000D0211430B400C1
:1006E0008C2030302C07AD00AE00AF01B101B0015D
:1006F000D0212D08AE00AF01B1018030B000D02173
:10070000AC0A572B08000B08AD008B138316031798
:100710008C170C14000000000318B52B83120C0872
:100720007F390313AE0003170D080313AF0003173F
:100730000F080313B0002E08B30038212F08031749
:100740008D000313300803178F0083168C170C14C9
:100750000000000083120313AC0BAF2BB22B8316E7
:100760000317B52BD42B8316031783120C0D0E0D14
:100770007F390313AE0003170D080313AF000317EF
:100780000F080313B0002E08B30038212F080317F9
:100790008D000313300803178F008D0A03198F0A89
:1007A00003100313AC0B862BAD1B8B1708003430E2
:1007B00003178D0000308F00031364210130B40053
:1007C000B5002621353003178D0000308F0003104F
:1007D00007300313AC0083232708AD001830AE00A8
:1007E000A2220130B4000230B50026213A300317AE
:1007F0008D0000308F00031007300313AC008323FB
:100800002808AD001830AE00A2220430AC00AF3092
:10081000B4008C20AC0B072C3F3003178D00003048
:100820008F00031364210130B400B500262127088E
:10083000280203182F2C403003178D0000308F0042
:10084000031364210130B4000230B5002621483082
:1008500003178D0000308F00031364215A2C2808E1
:1008600027020318472C4E3003178D0000308F00ED
:10087000031364210130B4000230B5002621563044
:1008800003178D0000308F00031364215A2C5C3055
:1008900003178D0000308F00031364210130B40072
:1008A0000230B5002621613003178D0000308F0023
:1008B00003136421AC012C08023C031CA72C8316F3
:1008C000061083120614831686108312861483166C
:1008D0000611831206158316861183128615831658
:1008E0000612831206168316861283128616831644
:1008F0000613831206178316861383128617C830D1
:10090000B4008C20831606108312061083168610FE
:100910008312861083160611831206118316861120
:10092000831286118316061283120612831686120C
:1009300083128612831606138312061383168613F8
:1009400083128613C830B4008C20AC0A5B2C8A1149
:100950000A12A42DA001A701A801A901AA01FF3034
:10096000AB0083161F149F141F159F1107309C00A6
:1009700083131F3083058312F3280130831685000B
:10098000033087008312AB00003083168600010815
:10099000C039073881006A30831203178D00003098
:1009A0008F00031364210130B400B50026216B30A1
:1009B00003178D0000308F00031364210130B40051
:1009C0000230B5002621723003178D0000308F00F1
:1009D00003136421AF21AB142B0883168700831205
:1009E000871C272DA001A901A701A801AA012A0897
:1009F000023C031C072D21302A0784008313800149
:100A000024302A07840083138001AA0AF72C7B3044
:100A100003178D0000308F00031364210130B400F0
:100A2000B50026217C3003178D0000308F000313A2
:100A300064210130B4000230B50026218330031751
:100A40008D0000308F0003136421AF21EB2CA00830
:100A5000031D482D2B142B08831687008312071CB7
:100A6000482D3830AC0009221C2A0230AC009630E8
:100A7000B4008C20AC0B372D3D2A5E2A0230AC002E
:100A8000FA30B4008C20AC0B402DAF210130A00017
:100A9000200B6E2D831605148312051C6E2D283035
:100AA000AC00092221302907F800FA010318FA0ADC
:100AB0007808AC007A08AD0096222C0884008313D5
:100AC0002D188317780880002130290784008313AC
:100AD0000008A707F92256230230A0002008023C94
:100AE000031DB02D831605148312051CB02D28306C
:100AF000AC00092224302907F800FA010318FA0A89
:100B00007808AC007A08AD0096222C088400831384
:100B10002D18831778088000243029078400831358
:100B20000008A807F9225623A90A2908023C031C39
:100B30009C2D0130A000B02D0430AC00AF30B400CB
:100B40008C20AC0B9E2DD72B0330A000AB142B08B0
:100B5000831687008312871CAF2DA001B02DA62D10
:040B6000EB2C630017
:02400E00393F38
:00000001FF
;PIC16F877A
;CRC=3F29  CREATED="27-Eki-24 21:24"
